{
  "contractName": "Purchasing",
  "abi": [
    {
      "constant": true,
      "inputs": [
        {
          "name": "",
          "type": "uint256"
        }
      ],
      "name": "buyers",
      "outputs": [
        {
          "name": "",
          "type": "address"
        }
      ],
      "payable": false,
      "stateMutability": "view",
      "type": "function"
    },
    {
      "constant": false,
      "inputs": [
        {
          "name": "artId",
          "type": "uint256"
        }
      ],
      "name": "purchase",
      "outputs": [
        {
          "name": "",
          "type": "uint256"
        }
      ],
      "payable": false,
      "stateMutability": "nonpayable",
      "type": "function"
    },
    {
      "constant": true,
      "inputs": [],
      "name": "getBuyers",
      "outputs": [
        {
          "name": "",
          "type": "address[6]"
        }
      ],
      "payable": false,
      "stateMutability": "view",
      "type": "function"
    }
  ],
  "bytecode": "0x608060405234801561001057600080fd5b50610316806100206000396000f3fe608060405234801561001057600080fd5b50600436106100415760003560e01c8063efef39a114610046578063f2aa821814610088578063f64bfaba146100f6575b600080fd5b6100726004803603602081101561005c57600080fd5b810190808035906020019092919050505061013c565b6040518082815260200191505060405180910390f35b6100b46004803603602081101561009e57600080fd5b8101908080359060200190929190505050610214565b604051808273ffffffffffffffffffffffffffffffffffffffff1673ffffffffffffffffffffffffffffffffffffffff16815260200191505060405180910390f35b6100fe610247565b6040518082600660200280838360005b8381101561012957808201518184015260208101905061010e565b5050505090500191505060405180910390f35b600080821015801561014f575060058211155b61015857600080fd5b600073ffffffffffffffffffffffffffffffffffffffff166000836006811061017d57fe5b0160009054906101000a900473ffffffffffffffffffffffffffffffffffffffff1673ffffffffffffffffffffffffffffffffffffffff16146101bf57600080fd5b33600083600681106101cd57fe5b0160006101000a81548173ffffffffffffffffffffffffffffffffffffffff021916908373ffffffffffffffffffffffffffffffffffffffff160217905550819050919050565b6000816006811061022157fe5b016000915054906101000a900473ffffffffffffffffffffffffffffffffffffffff1681565b61024f6102c8565b60006006806020026040519081016040528092919082600680156102be576020028201915b8160009054906101000a900473ffffffffffffffffffffffffffffffffffffffff1673ffffffffffffffffffffffffffffffffffffffff1681526020019060010190808311610274575b5050505050905090565b6040518060c0016040528060069060208202803883398082019150509050509056fea165627a7a7230582062ef13114ef1348998b2396aee45c1ce50ebef137bf81e2897c2bca955978e5d0029",
  "source": "pragma solidity ^0.5.0;\n\ncontract Purchasing {\n\n\taddress [6] public buyers; //Array di indirizzi Eth pubblico per accedere dall esterno//\n\n\tfunction purchase(uint artId) public returns (uint) {\n  \t\trequire(artId >= 0 && artId <= 5); //require : valida la condizione che in caso non affermativo interrompe l’esecuzione dello smart contract//\n\n  \t\trequire (buyers[artId] == address(0x0)); //indirizzo non assegnato : (0x0)//\n\n  \t\tbuyers[artId] = msg.sender;\t//L indirizzo della persona o del contratto che ha chiamato questa funzione è indicato da msg.sender//\n\n  \t\treturn artId;\n\t}\n\n\tfunction getBuyers() public view returns (address[6] memory) {\n  \t\treturn buyers; //funzione che restituisce tutta la lista acquirenti,'view' non modifica lo stato dello smart contract//\n\t}\n\n}\n",
  "sourcePath": "C:/Users/Developer/Desktop/DAPP SMART CONTRACTS ETHEREUM GUITAR/contracts/Purchasing.sol",
  "compiler": {
    "name": "solc",
    "version": "0.5.8+commit.23d335f2.Emscripten.clang"
  },
  "schemaVersion": "3.0.16",
  "updatedAt": "2019-09-13T16:08:57.650Z",
  "devdoc": {
    "methods": {}
  },
  "userdoc": {
    "methods": {}
  }
}